{
    "contractName": "MarketplaceBase",
    "abi": [
        {
            "inputs": [],
            "stateMutability": "nonpayable",
            "type": "constructor"
        },
        {
            "anonymous": false,
            "inputs": [
                {
                    "indexed": false,
                    "internalType": "address",
                    "name": "previousAdmin",
                    "type": "address"
                },
                {
                    "indexed": false,
                    "internalType": "address",
                    "name": "newAdmin",
                    "type": "address"
                }
            ],
            "name": "AdminChanged",
            "type": "event"
        },
        {
            "anonymous": false,
            "inputs": [
                {
                    "indexed": true,
                    "internalType": "address",
                    "name": "beacon",
                    "type": "address"
                }
            ],
            "name": "BeaconUpgraded",
            "type": "event"
        },
        {
            "anonymous": false,
            "inputs": [
                {
                    "indexed": true,
                    "internalType": "address",
                    "name": "seller",
                    "type": "address"
                },
                {
                    "indexed": true,
                    "internalType": "address",
                    "name": "buyer",
                    "type": "address"
                },
                {
                    "indexed": true,
                    "internalType": "address",
                    "name": "settlementToken",
                    "type": "address"
                },
                {
                    "indexed": false,
                    "internalType": "uint256",
                    "name": "price",
                    "type": "uint256"
                }
            ],
            "name": "BoughtWithSig",
            "type": "event"
        },
        {
            "anonymous": false,
            "inputs": [
                {
                    "indexed": false,
                    "internalType": "uint8",
                    "name": "version",
                    "type": "uint8"
                }
            ],
            "name": "Initialized",
            "type": "event"
        },
        {
            "anonymous": false,
            "inputs": [
                {
                    "indexed": true,
                    "internalType": "bytes32",
                    "name": "role",
                    "type": "bytes32"
                },
                {
                    "indexed": true,
                    "internalType": "bytes32",
                    "name": "previousAdminRole",
                    "type": "bytes32"
                },
                {
                    "indexed": true,
                    "internalType": "bytes32",
                    "name": "newAdminRole",
                    "type": "bytes32"
                }
            ],
            "name": "RoleAdminChanged",
            "type": "event"
        },
        {
            "anonymous": false,
            "inputs": [
                {
                    "indexed": true,
                    "internalType": "bytes32",
                    "name": "role",
                    "type": "bytes32"
                },
                {
                    "indexed": true,
                    "internalType": "address",
                    "name": "account",
                    "type": "address"
                },
                {
                    "indexed": true,
                    "internalType": "address",
                    "name": "sender",
                    "type": "address"
                }
            ],
            "name": "RoleGranted",
            "type": "event"
        },
        {
            "anonymous": false,
            "inputs": [
                {
                    "indexed": true,
                    "internalType": "bytes32",
                    "name": "role",
                    "type": "bytes32"
                },
                {
                    "indexed": true,
                    "internalType": "address",
                    "name": "account",
                    "type": "address"
                },
                {
                    "indexed": true,
                    "internalType": "address",
                    "name": "sender",
                    "type": "address"
                }
            ],
            "name": "RoleRevoked",
            "type": "event"
        },
        {
            "anonymous": false,
            "inputs": [
                {
                    "indexed": true,
                    "internalType": "address",
                    "name": "signer",
                    "type": "address"
                },
                {
                    "indexed": true,
                    "internalType": "bytes32",
                    "name": "signatureHash",
                    "type": "bytes32"
                }
            ],
            "name": "SignatureCancelled",
            "type": "event"
        },
        {
            "anonymous": false,
            "inputs": [
                {
                    "indexed": true,
                    "internalType": "address",
                    "name": "implementation",
                    "type": "address"
                }
            ],
            "name": "Upgraded",
            "type": "event"
        },
        {
            "inputs": [],
            "name": "DEFAULT_ADMIN_ROLE",
            "outputs": [
                {
                    "internalType": "bytes32",
                    "name": "",
                    "type": "bytes32"
                }
            ],
            "stateMutability": "view",
            "type": "function"
        },
        {
            "inputs": [],
            "name": "EXECUTOR",
            "outputs": [
                {
                    "internalType": "bytes32",
                    "name": "",
                    "type": "bytes32"
                }
            ],
            "stateMutability": "view",
            "type": "function"
        },
        {
            "inputs": [],
            "name": "FUND_MANAGER",
            "outputs": [
                {
                    "internalType": "bytes32",
                    "name": "",
                    "type": "bytes32"
                }
            ],
            "stateMutability": "view",
            "type": "function"
        },
        {
            "inputs": [
                {
                    "components": [
                        {
                            "internalType": "address",
                            "name": "bidder",
                            "type": "address"
                        },
                        {
                            "internalType": "address",
                            "name": "tokenContract",
                            "type": "address"
                        },
                        {
                            "internalType": "uint256",
                            "name": "tokenId",
                            "type": "uint256"
                        },
                        {
                            "internalType": "address",
                            "name": "settlementToken",
                            "type": "address"
                        },
                        {
                            "internalType": "uint256",
                            "name": "bidValue",
                            "type": "uint256"
                        },
                        {
                            "internalType": "uint256",
                            "name": "nonce",
                            "type": "uint256"
                        },
                        {
                            "internalType": "bytes",
                            "name": "signature",
                            "type": "bytes"
                        }
                    ],
                    "internalType": "struct MarketplaceBase.BidSignature",
                    "name": "bidSig",
                    "type": "tuple"
                },
                {
                    "components": [
                        {
                            "internalType": "address",
                            "name": "seller",
                            "type": "address"
                        },
                        {
                            "internalType": "address",
                            "name": "tokenContract",
                            "type": "address"
                        },
                        {
                            "internalType": "uint256",
                            "name": "tokenId",
                            "type": "uint256"
                        },
                        {
                            "internalType": "address",
                            "name": "settlementToken",
                            "type": "address"
                        },
                        {
                            "internalType": "uint256",
                            "name": "minimumBidPrice",
                            "type": "uint256"
                        },
                        {
                            "internalType": "uint256",
                            "name": "reservePrice",
                            "type": "uint256"
                        },
                        {
                            "internalType": "uint256",
                            "name": "expirationDate",
                            "type": "uint256"
                        },
                        {
                            "internalType": "uint256",
                            "name": "nonce",
                            "type": "uint256"
                        },
                        {
                            "internalType": "bytes",
                            "name": "signature",
                            "type": "bytes"
                        }
                    ],
                    "internalType": "struct MarketplaceBase.AuctionSignature",
                    "name": "auctionSig",
                    "type": "tuple"
                }
            ],
            "name": "acceptBid",
            "outputs": [],
            "stateMutability": "nonpayable",
            "type": "function"
        },
        {
            "inputs": [
                {
                    "components": [
                        {
                            "internalType": "address",
                            "name": "buyer",
                            "type": "address"
                        },
                        {
                            "internalType": "address",
                            "name": "tokenContract",
                            "type": "address"
                        },
                        {
                            "internalType": "uint256",
                            "name": "tokenId",
                            "type": "uint256"
                        },
                        {
                            "internalType": "address",
                            "name": "settlementToken",
                            "type": "address"
                        },
                        {
                            "internalType": "uint256",
                            "name": "settlementPrice",
                            "type": "uint256"
                        },
                        {
                            "internalType": "uint256",
                            "name": "deadline",
                            "type": "uint256"
                        },
                        {
                            "internalType": "uint256",
                            "name": "nonce",
                            "type": "uint256"
                        },
                        {
                            "internalType": "bytes",
                            "name": "signature",
                            "type": "bytes"
                        }
                    ],
                    "internalType": "struct MarketplaceBase.OfferSignature",
                    "name": "offerSig",
                    "type": "tuple"
                }
            ],
            "name": "acceptOfferSig",
            "outputs": [],
            "stateMutability": "payable",
            "type": "function"
        },
        {
            "inputs": [
                {
                    "components": [
                        {
                            "internalType": "address",
                            "name": "seller",
                            "type": "address"
                        },
                        {
                            "internalType": "address",
                            "name": "tokenContract",
                            "type": "address"
                        },
                        {
                            "internalType": "uint256",
                            "name": "tokenId",
                            "type": "uint256"
                        },
                        {
                            "internalType": "address",
                            "name": "settlementToken",
                            "type": "address"
                        },
                        {
                            "internalType": "uint256",
                            "name": "settlementPrice",
                            "type": "uint256"
                        },
                        {
                            "internalType": "uint256",
                            "name": "nonce",
                            "type": "uint256"
                        },
                        {
                            "internalType": "bytes",
                            "name": "signature",
                            "type": "bytes"
                        }
                    ],
                    "internalType": "struct MarketplaceBase.SellSignature",
                    "name": "sellSig",
                    "type": "tuple"
                }
            ],
            "name": "buyBySig",
            "outputs": [],
            "stateMutability": "payable",
            "type": "function"
        },
        {
            "inputs": [
                {
                    "components": [
                        {
                            "internalType": "address",
                            "name": "seller",
                            "type": "address"
                        },
                        {
                            "internalType": "address",
                            "name": "tokenContract",
                            "type": "address"
                        },
                        {
                            "internalType": "uint256",
                            "name": "tokenId",
                            "type": "uint256"
                        },
                        {
                            "internalType": "address",
                            "name": "settlementToken",
                            "type": "address"
                        },
                        {
                            "internalType": "uint256",
                            "name": "minimumBidPrice",
                            "type": "uint256"
                        },
                        {
                            "internalType": "uint256",
                            "name": "reservePrice",
                            "type": "uint256"
                        },
                        {
                            "internalType": "uint256",
                            "name": "expirationDate",
                            "type": "uint256"
                        },
                        {
                            "internalType": "uint256",
                            "name": "nonce",
                            "type": "uint256"
                        },
                        {
                            "internalType": "bytes",
                            "name": "signature",
                            "type": "bytes"
                        }
                    ],
                    "internalType": "struct MarketplaceBase.AuctionSignature",
                    "name": "auctionSig",
                    "type": "tuple"
                }
            ],
            "name": "cancelAuctionSig",
            "outputs": [],
            "stateMutability": "nonpayable",
            "type": "function"
        },
        {
            "inputs": [
                {
                    "components": [
                        {
                            "internalType": "address",
                            "name": "bidder",
                            "type": "address"
                        },
                        {
                            "internalType": "address",
                            "name": "tokenContract",
                            "type": "address"
                        },
                        {
                            "internalType": "uint256",
                            "name": "tokenId",
                            "type": "uint256"
                        },
                        {
                            "internalType": "address",
                            "name": "settlementToken",
                            "type": "address"
                        },
                        {
                            "internalType": "uint256",
                            "name": "bidValue",
                            "type": "uint256"
                        },
                        {
                            "internalType": "uint256",
                            "name": "nonce",
                            "type": "uint256"
                        },
                        {
                            "internalType": "bytes",
                            "name": "signature",
                            "type": "bytes"
                        }
                    ],
                    "internalType": "struct MarketplaceBase.BidSignature",
                    "name": "bidSig",
                    "type": "tuple"
                }
            ],
            "name": "cancelBidSig",
            "outputs": [],
            "stateMutability": "nonpayable",
            "type": "function"
        },
        {
            "inputs": [
                {
                    "components": [
                        {
                            "internalType": "address",
                            "name": "buyer",
                            "type": "address"
                        },
                        {
                            "internalType": "address",
                            "name": "tokenContract",
                            "type": "address"
                        },
                        {
                            "internalType": "uint256",
                            "name": "tokenId",
                            "type": "uint256"
                        },
                        {
                            "internalType": "address",
                            "name": "settlementToken",
                            "type": "address"
                        },
                        {
                            "internalType": "uint256",
                            "name": "settlementPrice",
                            "type": "uint256"
                        },
                        {
                            "internalType": "uint256",
                            "name": "deadline",
                            "type": "uint256"
                        },
                        {
                            "internalType": "uint256",
                            "name": "nonce",
                            "type": "uint256"
                        },
                        {
                            "internalType": "bytes",
                            "name": "signature",
                            "type": "bytes"
                        }
                    ],
                    "internalType": "struct MarketplaceBase.OfferSignature",
                    "name": "offerSig",
                    "type": "tuple"
                }
            ],
            "name": "cancelOfferSig",
            "outputs": [],
            "stateMutability": "nonpayable",
            "type": "function"
        },
        {
            "inputs": [
                {
                    "components": [
                        {
                            "internalType": "address",
                            "name": "seller",
                            "type": "address"
                        },
                        {
                            "internalType": "address",
                            "name": "tokenContract",
                            "type": "address"
                        },
                        {
                            "internalType": "uint256",
                            "name": "tokenId",
                            "type": "uint256"
                        },
                        {
                            "internalType": "address",
                            "name": "settlementToken",
                            "type": "address"
                        },
                        {
                            "internalType": "uint256",
                            "name": "settlementPrice",
                            "type": "uint256"
                        },
                        {
                            "internalType": "uint256",
                            "name": "nonce",
                            "type": "uint256"
                        },
                        {
                            "internalType": "bytes",
                            "name": "signature",
                            "type": "bytes"
                        }
                    ],
                    "internalType": "struct MarketplaceBase.SellSignature",
                    "name": "sellSig",
                    "type": "tuple"
                }
            ],
            "name": "cancelSellSig",
            "outputs": [],
            "stateMutability": "nonpayable",
            "type": "function"
        },
        {
            "inputs": [
                {
                    "internalType": "bytes32",
                    "name": "role",
                    "type": "bytes32"
                }
            ],
            "name": "getRoleAdmin",
            "outputs": [
                {
                    "internalType": "bytes32",
                    "name": "",
                    "type": "bytes32"
                }
            ],
            "stateMutability": "view",
            "type": "function"
        },
        {
            "inputs": [
                {
                    "internalType": "bytes32",
                    "name": "role",
                    "type": "bytes32"
                },
                {
                    "internalType": "uint256",
                    "name": "index",
                    "type": "uint256"
                }
            ],
            "name": "getRoleMember",
            "outputs": [
                {
                    "internalType": "address",
                    "name": "",
                    "type": "address"
                }
            ],
            "stateMutability": "view",
            "type": "function"
        },
        {
            "inputs": [
                {
                    "internalType": "bytes32",
                    "name": "role",
                    "type": "bytes32"
                }
            ],
            "name": "getRoleMemberCount",
            "outputs": [
                {
                    "internalType": "uint256",
                    "name": "",
                    "type": "uint256"
                }
            ],
            "stateMutability": "view",
            "type": "function"
        },
        {
            "inputs": [
                {
                    "internalType": "bytes32",
                    "name": "role",
                    "type": "bytes32"
                },
                {
                    "internalType": "address",
                    "name": "account",
                    "type": "address"
                }
            ],
            "name": "grantRole",
            "outputs": [],
            "stateMutability": "nonpayable",
            "type": "function"
        },
        {
            "inputs": [
                {
                    "internalType": "bytes32",
                    "name": "role",
                    "type": "bytes32"
                },
                {
                    "internalType": "address",
                    "name": "account",
                    "type": "address"
                }
            ],
            "name": "hasRole",
            "outputs": [
                {
                    "internalType": "bool",
                    "name": "",
                    "type": "bool"
                }
            ],
            "stateMutability": "view",
            "type": "function"
        },
        {
            "inputs": [],
            "name": "initialize",
            "outputs": [],
            "stateMutability": "nonpayable",
            "type": "function"
        },
        {
            "inputs": [],
            "name": "marketplaceCommissionBeneficiary",
            "outputs": [
                {
                    "internalType": "address",
                    "name": "",
                    "type": "address"
                }
            ],
            "stateMutability": "view",
            "type": "function"
        },
        {
            "inputs": [],
            "name": "marketplaceCommissionPermille",
            "outputs": [
                {
                    "internalType": "uint256",
                    "name": "",
                    "type": "uint256"
                }
            ],
            "stateMutability": "view",
            "type": "function"
        },
        {
            "inputs": [
                {
                    "components": [
                        {
                            "internalType": "address",
                            "name": "from",
                            "type": "address"
                        },
                        {
                            "internalType": "uint256",
                            "name": "tokenId",
                            "type": "uint256"
                        },
                        {
                            "internalType": "uint256",
                            "name": "nonce",
                            "type": "uint256"
                        },
                        {
                            "internalType": "bytes",
                            "name": "signature",
                            "type": "bytes"
                        }
                    ],
                    "internalType": "struct NftCollection.SignedMint",
                    "name": "signedMint",
                    "type": "tuple"
                },
                {
                    "components": [
                        {
                            "internalType": "address",
                            "name": "seller",
                            "type": "address"
                        },
                        {
                            "internalType": "address",
                            "name": "tokenContract",
                            "type": "address"
                        },
                        {
                            "internalType": "uint256",
                            "name": "tokenId",
                            "type": "uint256"
                        },
                        {
                            "internalType": "address",
                            "name": "settlementToken",
                            "type": "address"
                        },
                        {
                            "internalType": "uint256",
                            "name": "settlementPrice",
                            "type": "uint256"
                        },
                        {
                            "internalType": "uint256",
                            "name": "nonce",
                            "type": "uint256"
                        },
                        {
                            "internalType": "bytes",
                            "name": "signature",
                            "type": "bytes"
                        }
                    ],
                    "internalType": "struct MarketplaceBase.SellSignature",
                    "name": "sellSig",
                    "type": "tuple"
                }
            ],
            "name": "mintWithSignatureAndBuyBySig",
            "outputs": [],
            "stateMutability": "payable",
            "type": "function"
        },
        {
            "inputs": [],
            "name": "proxiableUUID",
            "outputs": [
                {
                    "internalType": "bytes32",
                    "name": "",
                    "type": "bytes32"
                }
            ],
            "stateMutability": "view",
            "type": "function"
        },
        {
            "inputs": [
                {
                    "internalType": "bytes32",
                    "name": "role",
                    "type": "bytes32"
                },
                {
                    "internalType": "address",
                    "name": "account",
                    "type": "address"
                }
            ],
            "name": "renounceRole",
            "outputs": [],
            "stateMutability": "nonpayable",
            "type": "function"
        },
        {
            "inputs": [
                {
                    "internalType": "bytes32",
                    "name": "role",
                    "type": "bytes32"
                },
                {
                    "internalType": "address",
                    "name": "account",
                    "type": "address"
                }
            ],
            "name": "revokeRole",
            "outputs": [],
            "stateMutability": "nonpayable",
            "type": "function"
        },
        {
            "inputs": [
                {
                    "internalType": "address",
                    "name": "_beneficiary",
                    "type": "address"
                }
            ],
            "name": "setMarketplaceBeneficiary",
            "outputs": [],
            "stateMutability": "nonpayable",
            "type": "function"
        },
        {
            "inputs": [
                {
                    "internalType": "uint256",
                    "name": "_marketplaceCommissionPermille",
                    "type": "uint256"
                }
            ],
            "name": "setMarketplaceCommissionPermille",
            "outputs": [],
            "stateMutability": "nonpayable",
            "type": "function"
        },
        {
            "inputs": [
                {
                    "internalType": "address",
                    "name": "settlementToken",
                    "type": "address"
                },
                {
                    "internalType": "bool",
                    "name": "status",
                    "type": "bool"
                }
            ],
            "name": "setSettlementTokenStatus",
            "outputs": [],
            "stateMutability": "nonpayable",
            "type": "function"
        },
        {
            "inputs": [
                {
                    "internalType": "address",
                    "name": "",
                    "type": "address"
                }
            ],
            "name": "settlementTokenStatusMap",
            "outputs": [
                {
                    "internalType": "bool",
                    "name": "",
                    "type": "bool"
                }
            ],
            "stateMutability": "view",
            "type": "function"
        },
        {
            "inputs": [
                {
                    "internalType": "bytes32",
                    "name": "",
                    "type": "bytes32"
                }
            ],
            "name": "sigCancelledMap",
            "outputs": [
                {
                    "internalType": "bool",
                    "name": "",
                    "type": "bool"
                }
            ],
            "stateMutability": "view",
            "type": "function"
        },
        {
            "inputs": [
                {
                    "internalType": "bytes4",
                    "name": "interfaceId",
                    "type": "bytes4"
                }
            ],
            "name": "supportsInterface",
            "outputs": [
                {
                    "internalType": "bool",
                    "name": "",
                    "type": "bool"
                }
            ],
            "stateMutability": "view",
            "type": "function"
        },
        {
            "inputs": [
                {
                    "internalType": "address",
                    "name": "newImplementation",
                    "type": "address"
                }
            ],
            "name": "upgradeTo",
            "outputs": [],
            "stateMutability": "nonpayable",
            "type": "function"
        },
        {
            "inputs": [
                {
                    "internalType": "address",
                    "name": "newImplementation",
                    "type": "address"
                },
                {
                    "internalType": "bytes",
                    "name": "data",
                    "type": "bytes"
                }
            ],
            "name": "upgradeToAndCall",
            "outputs": [],
            "stateMutability": "payable",
            "type": "function"
        }
    ],
    "bytecode": "60a080604052346100db57306080525f549060ff8260081c16610089575060ff8082161061004f575b6040516133ce9081620000e08239608051818181610d3701528181610e2701526111420152f35b60ff90811916175f557f7f26b83ff96e1f2b6a682f133852f6798a09c465da95921460cefb3847402498602060405160ff8152a15f610028565b62461bcd60e51b815260206004820152602760248201527f496e697469616c697a61626c653a20636f6e747261637420697320696e697469604482015266616c697a696e6760c81b6064820152608490fd5b5f80fdfe6080806040526004361015610012575f80fd5b5f905f3560e01c90816301ffc9a714611ec4575080630be01c5d14611d175780630d45741214611c985780630d7e37c414611c415780630ddce87f14611bc85780631165fdf614611b34578063151fb3c814611b15578063248a9ca314611ae85780632a800f5d14611ab45780632c685ea01461153e5780632f2ff15d1461148e57806336568abe146113fb5780633659cfe61461111c5780634f1ef28614610de757806352d1902d14610d24578063630dc7cb14610ce9578063755e554814610cc15780637c20ff8914610c815780637e74bcbe14610c515780638129fc1c1461090b5780639010d07c146108c457806391d148541461087a578063998b3afd1461080e578063a217fddf146107f2578063a6046dcf14610786578063bf2fdf91146106fe578063ca15c873146106d3578063cf40d6cd146106a9578063d36cad9f146101ab5763d547741f14610168575f80fd5b346101a85760403660031901126101a8576101a5600435610187611fb1565b9080845260fd6020526101a06001604086200154612b7d565b612dbc565b80f35b80fd5b506101b53661217b565b60e08101805191825160208094012092838552846101639283835260ff6040832054166106a55780516001600160a01b039590861633146106a1578382019580875116858115159182610649575b505015610440578087511692604081019283516040516331a9108f60e11b91828252600482015288816024818a5afa90811561063e578891610621575b5084808551169116146105c457845160405191825260048201528781602481895afa9081156105e95787916105f4575b5083339116036105c85760405163e985e9c560e01b81523360048201523060248201528781604481895afa9081156105e95787916105cc575b50156105c85761031f9861031784808551169251169261030f87519360608701956103078d6102f98b8a5116988b608081019a8b519060c060a08401519301519360405198899788019a8b612a06565b03601f198101835282611f7a565b519020612a69565b905190612ea8565b9a909a612edd565b83808451169a16998a036105c457836103e8610340835161016154906123de565b0492511680155f146104a05750805180341061049c57610361889134612405565b8015801561046c575b50508080809361037f86898951169251612405565b90828215610463575bf11561045857858080809386610162541682821561044f575bf115610444575b51169051823b15610440576040516323b872dd60e01b81523360048201526001600160a01b0392909216602483015260448201529082908290606490829084905af180156104355761041d575b508490525260408320805460ff191660011790555f805160206133398339815191528380a380f35b61042690611f31565b61043157845f6103f5565b8480fd5b6040513d84823e3d90fd5b8380fd5b6040513d86823e3d90fd5b506108fc6103a1565b6040513d87823e3d90fd5b506108fc610388565b82809281928290610493575b3390f11561048857865f8061036a565b6040513d88823e3d90fd5b506108fc610478565b8780fd5b90818852610164895260ff6040892054161561049c57610501896104c985888851169451612405565b6040516323b872dd60e01b8082526001600160a01b039095166004820152336024820152604481019190915291829081906064820190565b03818c875af19081156105b957899161059c575b501561049c578351610162546040519283526001600160a01b039187168216600484015286161660248201526044810192909252879082908189816064810103925af190811561048857869161056f575b506103a8578480fd5b61058f9150873d8911610595575b6105878183611f7a565b810190612237565b5f610566565b503d61057d565b6105b391508a3d8c11610595576105878183611f7a565b5f610515565b6040513d8b823e3d90fd5b8680fd5b8580fd5b6105e39150883d8a11610595576105878183611f7a565b5f6102a9565b6040513d89823e3d90fd5b6106149150883d8a1161061a575b61060c8183611f7a565b8101906123bf565b5f610270565b503d610602565b6106389150893d8b1161061a5761060c8183611f7a565b5f610240565b6040513d8a823e3d90fd5b6040516301ffc9a760e01b81526380ac58cd60e01b60048201529250829060249082905afa908115610458578591610684575b50855f610203565b61069b9150863d8811610595576105878183611f7a565b5f61067c565b8280fd5b5080fd5b50346101a857806003193601126101a857610162546040516001600160a01b039091168152602090f35b50346101a85760203660031901126101a8576040602091600435815261012f83522054604051908152f35b50346101a85760203660031901126101a8576004356001600160401b0381116106a5576107326101a591369060040161203c565b60018060a01b039061077782825116836020840151166103076040850151916102f987606088015116608088015160a08901519160405196879560208701998a6122f5565b9160c082015191511691612b0d565b50346101a8576101a56107983661217b565b60018060a01b03906107e382825116836020840151166103076040850151916102f987606088015116608088015160a08901519060c08a015192604051978896602088019a8b612a06565b9160e082015191511691612b0d565b50346101a857806003193601126101a857602090604051908152f35b50346101a85760203660031901126101a857610828611f9b565b5f80516020613379833981519152825260fd60205260408220335f5260205260ff60405f205416156106a5576001600160a01b031680156106a55761016280546001600160a01b031916909117905580f35b50346101a85760403660031901126101a8576040610896611fb1565b91600435815260fd602052209060018060a01b03165f52602052602060ff60405f2054166040519015158152f35b50346101a85760403660031901126101a8576108f2602091600435815261012f8352604060243591206130dc565b905460405160039290921b1c6001600160a01b03168152f35b50346101a857806003193601126101a857805460ff808260081c1615808091610c45575b8015610c2f575b15610bd35760ff19808416600190811786559382610bc2575b5082855460081c169261096184612e48565b6109db6040519461097186611f5f565b6014865260209586810190734e46545370616365204d61726b6574706c61636560601b8252604051916109a383611f5f565b600583528883019164302e302e3160d81b83526109bf85612e48565b6109c885612e48565b5190209151902090606555606655612e48565b85805260fd9081855260408720335f5285528060405f20541615610b8e575b86805261012f91828652610a113360408a206131a4565b507f9cf85f95575c3af1e116e3d37fd41e7f36a8a373623f51ffaaa87fdd032fa76780895281875260408920335f5287528260405f20541615610b5a575b8852828652610a613360408a206131a4565b505f805160206133798339815191529182895281875260408920335f52875260405f20541615610b26575b5086528352610a9e33604087206131a4565b508461016155610162336bffffffffffffffffffffffff60a01b825416179055737d45d91421ea7c6293b48c45fd37e038d032a33485526101648352836040862091825416179055610aee578280f35b825461ff00191683556040519182527f7f26b83ff96e1f2b6a682f133852f6798a09c465da95921460cefb384740249891a15f808280f35b818852855260408720335f52855260405f2086848254161790553333825f805160206133198339815191528a80a45f610a8c565b80895281875260408920335f52875260405f2088868254161790553333825f805160206133198339815191528c80a4610a4f565b86805281855260408720335f52855260405f2086848254161790553333885f805160206133198339815191528180a46109fa565b61ffff19166101011785555f61094f565b60405162461bcd60e51b815260206004820152602e60248201527f496e697469616c697a61626c653a20636f6e747261637420697320616c72656160448201526d191e481a5b9a5d1a585b1a5e995960921b6064820152608490fd5b50303b1580156109365750600182841614610936565b5060018284161061092f565b50346101a85760203660031901126101a85760ff6040602092600435815261016384522054166040519015158152f35b50346101a85760203660031901126101a85760209060ff906040906001600160a01b03610cac611f9b565b16815261016484522054166040519015158152f35b50346101a857806003193601126101a85760206040515f805160206133798339815191528152f35b50346101a857806003193601126101a85760206040517f9cf85f95575c3af1e116e3d37fd41e7f36a8a373623f51ffaaa87fdd032fa7678152f35b50346101a857806003193601126101a8577f00000000000000000000000000000000000000000000000000000000000000006001600160a01b03163003610d7c5760206040515f805160206133598339815191528152f35b60405162461bcd60e51b815260206004820152603860248201527f555550535570677261646561626c653a206d757374206e6f742062652063616c60448201527f6c6564207468726f7567682064656c656761746563616c6c00000000000000006064820152608490fd5b5060403660031901126101a857610dfc611f9b565b906024356001600160401b0381116106a557610e1c903690600401611ff6565b916001600160a01b037f00000000000000000000000000000000000000000000000000000000000000008116610e5430821415612944565b610e705f805160206133598339815191529183835416146129a5565b83805260209160fd835260408520335f52835260ff60405f20541615610431577f4910fdfa16fed3260ed0e7147f7cc6da11a60208b5b9406d12a635614ffd91435460ff1615610ec8575050506101a591925061304d565b8392949316906040516352d1902d60e01b81528581600481865afa5f91816110e9575b50610f4c5760405162461bcd60e51b815260048101879052602e60248201527f45524331393637557067726164653a206e657720696d706c656d656e7461746960448201526d6f6e206973206e6f74205555505360901b6064820152608490fd5b9493940361109257610f5d8261304d565b604051907fbc7cd75a20ee27fd9adebab32041f755214dbc6bffa90cc0225b39da2e5c2d3b5f80a284511580159061108a575b610f9d575b505050905080f35b813b1561103957505f848192846110279697519201905af43d15611031573d90610fc682611fdb565b91610fd46040519384611f7a565b82523d5f8484013e5b7f416464726573733a206c6f772d6c6576656c2064656c65676174652063616c6c6040519361100b85611f44565b60278552840152660819985a5b195960ca1b60408401526132d8565b50805f8080610f95565b606090610fdd565b62461bcd60e51b815260048101839052602660248201527f416464726573733a2064656c65676174652063616c6c20746f206e6f6e2d636f6044820152651b9d1c9858dd60d21b6064820152608490fd5b506001610f90565b60405162461bcd60e51b815260048101849052602960248201527f45524331393637557067726164653a20756e737570706f727465642070726f786044820152681a58589b195555525160ba1b6064820152608490fd5b9091508681813d8311611115575b6111018183611f7a565b810103126111115751905f610eeb565b5f80fd5b503d6110f7565b50346101a8576020806003193601126106a557611137611f9b565b906001600160a01b037f0000000000000000000000000000000000000000000000000000000000000000811661116f30821415612944565b61118b5f805160206133598339815191529183835416146129a5565b84805260fd835260408520335f52835260ff60405f205416156104315760405190838201928284106001600160401b038511176113e7578360405286835260ff7f4910fdfa16fed3260ed0e7147f7cc6da11a60208b5b9406d12a635614ffd914354165f146112025750505050506101a59061304d565b8596949516906040516352d1902d60e01b81528681600481865afa5f91816113b8575b506112865760405162461bcd60e51b815260048101889052602e60248201527f45524331393637557067726164653a206e657720696d706c656d656e7461746960448201526d6f6e206973206e6f74205555505360901b6064820152608490fd5b95949503611361576112978661304d565b604051907fbc7cd75a20ee27fd9adebab32041f755214dbc6bffa90cc0225b39da2e5c2d3b5f80a281511580159061135a575b6112d8575b50505050905080f35b853b1561130957506112fe93945f92839251915af43d15611031573d90610fc682611fdb565b50805f8080806112cf565b62461bcd60e51b815260048101849052602660248201527f416464726573733a2064656c65676174652063616c6c20746f206e6f6e2d636f6044820152651b9d1c9858dd60d21b6064820152608490fd5b505f6112ca565b60405162461bcd60e51b815260048101859052602960248201527f45524331393637557067726164653a20756e737570706f727465642070726f786044820152681a58589b195555525160ba1b6064820152608490fd5b9091508781813d83116113e0575b6113d08183611f7a565b810103126111115751905f611225565b503d6113c6565b634e487b7160e01b5f52604160045260245ffd5b50346101a85760403660031901126101a857611415611fb1565b336001600160a01b03821603611431576101a590600435612dbc565b60405162461bcd60e51b815260206004820152602f60248201527f416363657373436f6e74726f6c3a2063616e206f6e6c792072656e6f756e636560448201526e103937b632b9903337b91039b2b63360891b6064820152608490fd5b50346101a85760403660031901126101a85761150260043561012f6114b1611fb1565b9180855260209060fd82526114cc6001604088200154612b7d565b80865260fd825260408087206001600160a01b039095165f81815295845294205460ff1615611506575b855252604083206131a4565b5080f35b80865260fd825260408620845f52825260405f20600160ff198254161790553384825f805160206133198339815191528980a46114f6565b50346101a85760403660031901126101a8576001600160401b036004358181116106a15761157090369060040161203c565b906024359081116106a1576115899036906004016120d3565b6020810180519092906001600160a01b03168015159081611a58575b50156104405760018060a01b03835116916040810151604051906331a9108f60e11b82526004820152602081602481875afa908115610488578691611a39575b50815160405163e985e9c560e01b81526001600160a01b039091166004820152306024820152602081604481885afa9081156105e9578791611a1a575b50156105c85781516001600160a01b03918216911681036105c8577f9cf85f95575c3af1e116e3d37fd41e7f36a8a373623f51ffaaa87fdd032fa767865260fd60205260408620335f5260205260ff60405f2054165f146119ff575060c08101514210610431575b84610100820151602081519101209384825261016360205260ff6040832054166106a55760c0840151602081519101209586835260ff6040842054166106a1575160208501516001600160a01b03918216911681036106a1576040840151906040860151820361044057606085810151908701516001600160a01b039182169291168203610431578115610431576080860151608088015181116105c85761177c93610307611768936102f9611774968b60018060a01b038151169660a08201519060e060c084015193015193604051988997602089019b8c612355565b61010086015190612ea8565b919091612edd565b83516001600160a01b039081169116036106a5576117f16117746117e660018060a01b0387511660018060a01b0360208901511661030760408a0151916102f960018060a01b0360608d0151168c60a060808201519101519160405196879560208701998a6122f5565b60c087015190612ea8565b84516001600160a01b039081169116036106a55760608301516001600160a01b0316808352610164602052604083205460ff16156106a1576103e861183e608087015161016154906123de565b049061184e826080880151612405565b8651610162546040516323b872dd60e01b8082526001600160a01b03938416600483015292909116602482015260448101949094529290919060208160648189865af19081156104885786916119e0575b501561043157865186516040518581526001600160a01b0392831660048201529116602482015260448101929092526020908290606490829088905af19081156104445784916119c1575b50156106a157835185516040860151936001600160a01b0391821692909116813b156105c8576040519384526001600160a01b03908116600485015291909116602483015260448201929092529082908290606490829084905af18015610435576119ad575b5083905261016360205260408520805460ff1990811660011790915590515f8051602061333983398151915293906001600160a01b0316848780a38385526040852080549091166001179055516001600160a01b0316908380a380f35b6119b690611f31565b61043157845f611950565b6119da915060203d602011610595576105878183611f7a565b5f6118ea565b6119f9915060203d602011610595576105878183611f7a565b5f61189f565b82516001600160a01b031633146105c857331461168a578480fd5b611a33915060203d602011610595576105878183611f7a565b5f611622565b611a52915060203d60201161061a5761060c8183611f7a565b5f6115e5565b6040516301ffc9a760e01b81526380ac58cd60e01b60048201529150602090829060249082905afa908115610458578591611a95575b505f6115a5565b611aae915060203d602011610595576105878183611f7a565b5f611a8e565b5060203660031901126101a8576004356001600160401b0381116106a557611ae36101a591369060040161203c565b612412565b50346101a85760203660031901126101a85760016040602092600435815260fd8452200154604051908152f35b50346101a857806003193601126101a857602061016154604051908152f35b50346101a85760203660031901126101a8576004356001600160401b0381116106a557611b686101a59136906004016120d3565b60018060a01b0390611bb882825116836020840151166103076040850151916102f987606088015116608088015160a089015160c08a01519160e08b015193604051988997602089019b8c612355565b9161010082015191511691612b0d565b50346101a85760203660031901126101a8576004356001600160401b0381116106a557611bfc6101a591369060040161203c565b60018060a01b039061077782825116836020840151166103076040850151916102f987606088015116608088015160a08901519160405196879560208701998a612295565b50346101a85760203660031901126101a8576004355f80516020613379833981519152825260fd60205260408220335f5260205260ff60405f205416156106a55780156106a5576101f481116106a5576101615580f35b50346101a85760403660031901126101a857611cb2611f9b565b602435908115158092036106a1575f80516020613379833981519152835260fd60205260408320335f5260205260ff60405f205416156106a1576001600160a01b031680156106a1578252610164602052604082209060ff8019835416911617905580f35b5060031960403682011261111157600435906001600160401b0390818311611111576080908336030112611111576040519160808301838110838211176113e757604052611d6781600401611fc7565b83526020918284019260248301358452604085019260448101358452606481013590838211611111576004611d9f9236920101611ff6565b916060860192835260243590811161111157611dbf90369060040161203c565b948186019260018060a01b039384815116848115159182611e6c575b5050156111115751841692833b1561111157611e335f96928793604051998a98899788966339fdc47d60e11b8852600488015251166024860152516044850152516064840152516080608484015260a4830190612270565b03925af18015611e6157611e4c575b506101a590612412565b611e57919250611f31565b5f906101a5611e42565b6040513d5f823e3d90fd5b6040516301ffc9a760e01b81526380ac58cd60e01b60048201529250829060249082905afa908115611e61575f91611ea7575b50845f611ddb565b611ebe9150853d8711610595576105878183611f7a565b5f611e9f565b34611111576020366003190112611111576004359063ffffffff60e01b821680920361111157602091635a05180f60e01b8114908115611f06575b5015158152f35b637965db0b60e01b811491508115611f20575b5083611eff565b6301ffc9a760e01b14905083611f19565b6001600160401b0381116113e757604052565b606081019081106001600160401b038211176113e757604052565b604081019081106001600160401b038211176113e757604052565b90601f801991011681019081106001600160401b038211176113e757604052565b600435906001600160a01b038216820361111157565b602435906001600160a01b038216820361111157565b35906001600160a01b038216820361111157565b6001600160401b0381116113e757601f01601f191660200190565b81601f820112156111115780359061200d82611fdb565b9261201b6040519485611f7a565b8284526020838301011161111157815f926020809301838601378301015290565b91909160e08184031261111157604051906001600160401b039060e08301828111848210176113e757604052829461207382611fc7565b845261208160208301611fc7565b60208501526040820135604085015261209c60608301611fc7565b60608501526080820135608085015260a082013560a085015260c08201359283116111115760c0926120ce9201611ff6565b910152565b91909161012090818185031261111157604051918201906001600160401b0391838110838211176113e757604052829461210c82611fc7565b845261211a60208301611fc7565b60208501526040820135604085015261213560608301611fc7565b60608501526080820135608085015260a082013560a085015260c082013560c085015260e082013560e08501526101009283830135908111611111576120ce9201611ff6565b60031990602081830112611111576001600160401b0390600435828111611111576101008094828403011261111157604051938401848110848211176113e7576040526121ca81600401611fc7565b84526121d860248201611fc7565b6020850152604481013560408501526121f360648201611fc7565b60608501526084810135608085015260a481013560a085015260c481013560c085015260e48101359283116111115761222f9201600401611ff6565b60e082015290565b90816020910312611111575180151581036111115790565b5f5b8381106122605750505f910152565b8181015183820152602001612251565b906020916122898151809281855285808601910161224f565b601f01601f1916010190565b7febd32ddf6499f1c2a0f869545f6fe61a72d7dc069f1e01d91f65a49cc603980f81526001600160a01b039182166020820152918116604083015260608201929092529116608082015260a081019190915260c081019190915260e00190565b7f8746252c5e96e00aa4d757b56c6c666e7f2714a9e96d0a9ac497b600d5a9950581526001600160a01b039182166020820152918116604083015260608201929092529116608082015260a081019190915260c081019190915260e00190565b94919098979693610100969361012087019a7fd1c9872d00e26e3fdbc3959656642f1e98967eba8241fdfd25e07dd922ba753e885260018060a01b03938480921660208a0152166040880152606087015216608085015260a084015260c083015260e08201520152565b9081602091031261111157516001600160a01b03811681036111115790565b818102929181159184041417156123f157565b634e487b7160e01b5f52601160045260245ffd5b919082039182116123f157565b9060c082018051908151602080930120915f90835f5261016380825260409160ff835f2054166111115787810180516001600160a01b0396908716801515908490826128e3575b505015611111578682511696858b019a8b519887516331a9108f60e11b9081815260049b8c8201528781602481865afa90811561283e575f916128c6575b5084163314611111578d518951908282528c8201528781602481865afa90811561283e575f916128a9575b508480855116911603611111578d5189519182528b8201528681602481855afa908115612715578b6125289289925f9161288c575b508b5163e985e9c560e01b81526001600160a01b039091169181019182523060208301529283918291604090910190565b0381855afa908115612715575f9161286f575b5015611111578280835116955116938d519460608401958886885116988c608088019a8b519060a08a015192519586958601976125789589612295565b03601f198101825261258a9082611f7a565b51902061259690612a69565b90516125a191612ea8565b6125ad909b919b612edd565b83808451169b169a8b03611111576103e86125cd875161016154906123de565b048486511680155f1461274d57508651803410611111576125ee9034612405565b80158015612728575b50505f8080808888511661260c868d51612405565b9082821561271f575bf115612715575f8080809388610162541682821561270c575bf115612702575b838351169d5190823b156111115789516323b872dd60e01b81526001600160a01b03909f16908f0190815233602082015260408101919091528d90819060600103815a5f948591f19b8c156126f8575f80516020613339833981519152999a9b9c6126e5575b508190511691511691519085519182527f7513041303c2b9ea5d0cd2947187eb1839f9eefc23f1d9017f96531557376a88843393a4868452528120805460ff1916600117905580a3565b6126f0919850611f31565b5f968161269b565b87513d5f823e3d90fd5b88513d5f823e3d90fd5b506108fc61262e565b89513d5f823e3d90fd5b506108fc612615565b5f80809381938290612744575b3390f115612715575f806125f7565b506108fc612735565b90815f52610164895260ff8b5f205416156111115785855116906127b38a8d612777848d51612405565b90516323b872dd60e01b808252338983019081526001600160a01b03909716602088015260408701929092529094909283918291606090910190565b03815f885af1908115612865575f91612848575b501561111157610162548c51928352338584019081529088166001600160a01b0316602082015260408101919091529091899183919082905f90829060600103925af190811561283e575f91612821575b50612635575f80fd5b6128389150883d8a11610595576105878183611f7a565b5f612818565b8a513d5f823e3d90fd5b61285f91508b3d8d11610595576105878183611f7a565b5f6127c7565b8d513d5f823e3d90fd5b6128869150873d8911610595576105878183611f7a565b5f61253b565b6128a39150833d851161061a5761060c8183611f7a565b5f6124f7565b6128c09150883d8a1161061a5761060c8183611f7a565b5f6124c2565b6128dd9150883d8a1161061a5761060c8183611f7a565b5f612497565b87516301ffc9a760e01b81526380ac58cd60e01b60048201529250829060249082905afa90811561293a575f9161291d575b50835f612459565b6129349150843d8611610595576105878183611f7a565b5f612915565b86513d5f823e3d90fd5b1561294b57565b60405162461bcd60e51b815260206004820152602c60248201527f46756e6374696f6e206d7573742062652063616c6c6564207468726f7567682060448201526b19195b1959d85d1958d85b1b60a21b6064820152608490fd5b156129ac57565b60405162461bcd60e51b815260206004820152602c60248201527f46756e6374696f6e206d7573742062652063616c6c6564207468726f7567682060448201526b6163746976652070726f787960a01b6064820152608490fd5b9360e0959291989796936101008601997fb56db372abfc781b2cc7b3e225d4d5c8b1dc4a36edfdc45b155fbb6efd6341b3875260018060a01b0393848092166020890152166040870152606086015216608084015260a083015260c08201520152565b6065546066546040519060208201927f8b73c3c69bb8fe3d512ecc4cf759cc79239f7b179b0ffacaa9a75d522b39400f8452604083015260608201524660808201523060a082015260a0815260c08101916001600160401b0391808410838511176113e7576101409184604052815190209460e082019561190160f01b875260e2830152610102820152604284520190828210908211176113e75760405251902090565b6001600160a01b03928316919033839003611111578151602083012093845f52610163928360205260ff60405f20541661111157611774612b4f918694612ea8565b160361111157825f5260205260405f20600160ff198254161790555f805160206133398339815191525f80a3565b805f52602060fd8152604091825f20335f52825260ff835f20541615612ba257505050565b33835191612baf83611f44565b602a83528383019085368337835115612d67576030825383519260019360011015612d67576078602186015360295b848111612d7b5750612ce25790855191608083018381106001600160401b038211176113e757875260428352858301936060368637835115612d675760308553835160011015612d6757607860218501536041905b808211612d24575050612ce257612cde938693612cc293612cb3604894612c8a9a519a8b957f416363657373436f6e74726f6c3a206163636f756e74200000000000000000008c880152518092603788019061224f565b8401917001034b99036b4b9b9b4b733903937b6329607d1b60378401525180938684019061224f565b01036028810187520185611f7a565b5192839262461bcd60e51b845260048401526024830190612270565b0390fd5b60648587519062461bcd60e51b825280600483015260248201527f537472696e67733a20686578206c656e67746820696e73756666696369656e746044820152fd5b9091600f81166010811015612d67576f181899199a1a9b1b9c1cb0b131b232b360811b901a612d538487613193565b5360041c9180156123f1575f190190612c33565b634e487b7160e01b5f52603260045260245ffd5b90600f81166010811015612d67576f181899199a1a9b1b9c1cb0b131b232b360811b901a612da98388613193565b5360041c9080156123f1575f1901612bde565b90612dfb91805f5260fd60205260405f209160018060a01b031691825f5260205260ff60405f205416612dfe575b5f5261012f60205260405f20613213565b50565b805f5260fd60205260405f20825f5260205260405f2060ff1981541690553382827ff6391f5c32d9c69d2a47ea670b442974b53935d1edc7fd64eb21e047a839171b5f80a4612dea565b15612e4f57565b60405162461bcd60e51b815260206004820152602b60248201527f496e697469616c697a61626c653a20636f6e7472616374206973206e6f74206960448201526a6e697469616c697a696e6760a81b6064820152608490fd5b9060418151145f14612ed457612ed091602082015190606060408401519301515f1a906130f1565b9091565b50505f90600290565b60058110156130395780612eee5750565b60018103612f3b5760405162461bcd60e51b815260206004820152601860248201527f45434453413a20696e76616c6964207369676e617475726500000000000000006044820152606490fd5b60028103612f885760405162461bcd60e51b815260206004820152601f60248201527f45434453413a20696e76616c6964207369676e6174757265206c656e677468006044820152606490fd5b60038103612fe05760405162461bcd60e51b815260206004820152602260248201527f45434453413a20696e76616c6964207369676e6174757265202773272076616c604482015261756560f01b6064820152608490fd5b600414612fe957565b60405162461bcd60e51b815260206004820152602260248201527f45434453413a20696e76616c6964207369676e6174757265202776272076616c604482015261756560f01b6064820152608490fd5b634e487b7160e01b5f52602160045260245ffd5b803b15613081575f8051602061335983398151915280546001600160a01b0319166001600160a01b03909216919091179055565b60405162461bcd60e51b815260206004820152602d60248201527f455243313936373a206e657720696d706c656d656e746174696f6e206973206e60448201526c1bdd08184818dbdb9d1c9858dd609a1b6064820152608490fd5b8054821015612d67575f5260205f2001905f90565b907f7fffffffffffffffffffffffffffffff5d576e7357a4501ddfe92f46681b20a084116131885760ff1690601b8214158061317d575b613172576020935f93608093604051938452868401526040830152606082015282805260015afa15611e61575f516001600160a01b0381161561316a57905f90565b505f90600190565b505050505f90600490565b50601c821415613128565b505050505f90600390565b908151811015612d67570160200190565b6001810190825f528160205260405f2054155f1461320c578054680100000000000000008110156113e7576131f96131e38260018794018555846130dc565b819391549060031b91821b915f19901b19161790565b905554915f5260205260405f2055600190565b5050505f90565b906001820191815f528260205260405f2054908115155f146132d0575f19918083018181116123f1578254908482019182116123f15780820361329b575b505050805480156132875782019161326983836130dc565b909182549160031b1b19169055555f526020525f6040812055600190565b634e487b7160e01b5f52603160045260245ffd5b6132bb6132ab6131e393866130dc565b90549060031b1c928392866130dc565b90555f528460205260405f20555f8080613251565b505050505f90565b909190156132e4575090565b8151156132f45750805190602001fd5b60405162461bcd60e51b815260206004820152908190612cde90602483019061227056fe2f8788117e7eff1d82e926ec794901d17c78024a50270940304540a733656f0d8c4e82d0c2e3a462d0450cd1797aef55b85987a833dd3d93b61d96824a01410e360894a13ba1a3210667c828492db98dca3e2076cc3735a920a3ca505d382bbcb58436161aa98d7442ffff3af203d6031ad86e54ee571266152aa0e83a524726a264697066735822122081d0436e6191ef3813d7e3299a3b18f58987bd86c4726683fc01b3565a3be78d64736f6c63430008180033",
    "sourcePath": "/Users/yashmathur/Documents/GitHub/NFT-Marketplace/contracts/MarketplaceBase.sol",
    "compiler": {
        "name": "solc",
        "version": "0.8.24+commit.e11b9ed9"
    },
    "functionHashes": {
        "DEFAULT_ADMIN_ROLE()": "a217fddf",
        "EXECUTOR()": "630dc7cb",
        "FUND_MANAGER()": "755e5548",
        "acceptBid((address,address,uint256,address,uint256,uint256,bytes),(address,address,uint256,address,uint256,uint256,uint256,uint256,bytes))": "2c685ea0",
        "acceptOfferSig((address,address,uint256,address,uint256,uint256,uint256,bytes))": "d36cad9f",
        "buyBySig((address,address,uint256,address,uint256,uint256,bytes))": "2a800f5d",
        "cancelAuctionSig((address,address,uint256,address,uint256,uint256,uint256,uint256,bytes))": "1165fdf6",
        "cancelBidSig((address,address,uint256,address,uint256,uint256,bytes))": "bf2fdf91",
        "cancelOfferSig((address,address,uint256,address,uint256,uint256,uint256,bytes))": "a6046dcf",
        "cancelSellSig((address,address,uint256,address,uint256,uint256,bytes))": "0ddce87f",
        "getRoleAdmin(bytes32)": "248a9ca3",
        "getRoleMember(bytes32,uint256)": "9010d07c",
        "getRoleMemberCount(bytes32)": "ca15c873",
        "grantRole(bytes32,address)": "2f2ff15d",
        "hasRole(bytes32,address)": "91d14854",
        "initialize()": "8129fc1c",
        "marketplaceCommissionBeneficiary()": "cf40d6cd",
        "marketplaceCommissionPermille()": "151fb3c8",
        "mintWithSignatureAndBuyBySig((address,uint256,uint256,bytes),(address,address,uint256,address,uint256,uint256,bytes))": "0be01c5d",
        "proxiableUUID()": "52d1902d",
        "renounceRole(bytes32,address)": "36568abe",
        "revokeRole(bytes32,address)": "d547741f",
        "setMarketplaceBeneficiary(address)": "998b3afd",
        "setMarketplaceCommissionPermille(uint256)": "0d7e37c4",
        "setSettlementTokenStatus(address,bool)": "0d457412",
        "settlementTokenStatusMap(address)": "7c20ff89",
        "sigCancelledMap(bytes32)": "7e74bcbe",
        "supportsInterface(bytes4)": "01ffc9a7",
        "upgradeTo(address)": "3659cfe6",
        "upgradeToAndCall(address,bytes)": "4f1ef286"
    },
    "gasEstimates": {
        "creation": {
            "codeDepositCost": "2652400",
            "executionCost": "infinite",
            "totalCost": "infinite"
        },
        "external": {
            "DEFAULT_ADMIN_ROLE()": "670",
            "EXECUTOR()": "491",
            "FUND_MANAGER()": "545",
            "acceptBid((address,address,uint256,address,uint256,uint256,bytes),(address,address,uint256,address,uint256,uint256,uint256,uint256,bytes))": "infinite",
            "acceptOfferSig((address,address,uint256,address,uint256,uint256,uint256,bytes))": "infinite",
            "buyBySig((address,address,uint256,address,uint256,uint256,bytes))": "infinite",
            "cancelAuctionSig((address,address,uint256,address,uint256,uint256,uint256,uint256,bytes))": "infinite",
            "cancelBidSig((address,address,uint256,address,uint256,uint256,bytes))": "infinite",
            "cancelOfferSig((address,address,uint256,address,uint256,uint256,uint256,bytes))": "infinite",
            "cancelSellSig((address,address,uint256,address,uint256,uint256,bytes))": "infinite",
            "getRoleAdmin(bytes32)": "2490",
            "getRoleMember(bytes32,uint256)": "5021",
            "getRoleMemberCount(bytes32)": "2902",
            "grantRole(bytes32,address)": "infinite",
            "hasRole(bytes32,address)": "2956",
            "initialize()": "infinite",
            "marketplaceCommissionBeneficiary()": "2882",
            "marketplaceCommissionPermille()": "2396",
            "mintWithSignatureAndBuyBySig((address,uint256,uint256,bytes),(address,address,uint256,address,uint256,uint256,bytes))": "infinite",
            "proxiableUUID()": "infinite",
            "renounceRole(bytes32,address)": "72186",
            "revokeRole(bytes32,address)": "infinite",
            "setMarketplaceBeneficiary(address)": "27253",
            "setMarketplaceCommissionPermille(uint256)": "24636",
            "setSettlementTokenStatus(address,bool)": "26907",
            "settlementTokenStatusMap(address)": "2807",
            "sigCancelledMap(bytes32)": "2738",
            "supportsInterface(bytes4)": "332",
            "upgradeTo(address)": "infinite",
            "upgradeToAndCall(address,bytes)": "infinite"
        },
        "internal": {
            "_authorizeUpgrade(address)": "infinite",
            "_cancelSignature(bytes32,bytes memory,address)": "infinite"
        }
    }
}